{
  "_format": "hh-sol-artifact-1",
  "contractName": "MyEpicNFT",
  "sourceName": "contracts/MyEpicNFT.sol",
  "abi": [
    {
      "inputs": [],
      "stateMutability": "nonpayable",
      "type": "constructor"
    },
    {
      "anonymous": false,
      "inputs": [
        {
          "indexed": true,
          "internalType": "address",
          "name": "owner",
          "type": "address"
        },
        {
          "indexed": true,
          "internalType": "address",
          "name": "approved",
          "type": "address"
        },
        {
          "indexed": true,
          "internalType": "uint256",
          "name": "tokenId",
          "type": "uint256"
        }
      ],
      "name": "Approval",
      "type": "event"
    },
    {
      "anonymous": false,
      "inputs": [
        {
          "indexed": true,
          "internalType": "address",
          "name": "owner",
          "type": "address"
        },
        {
          "indexed": true,
          "internalType": "address",
          "name": "operator",
          "type": "address"
        },
        {
          "indexed": false,
          "internalType": "bool",
          "name": "approved",
          "type": "bool"
        }
      ],
      "name": "ApprovalForAll",
      "type": "event"
    },
    {
      "anonymous": false,
      "inputs": [
        {
          "indexed": false,
          "internalType": "address",
          "name": "sender",
          "type": "address"
        },
        {
          "indexed": false,
          "internalType": "uint256",
          "name": "tokenId",
          "type": "uint256"
        }
      ],
      "name": "NewEpicNFTMinted",
      "type": "event"
    },
    {
      "anonymous": false,
      "inputs": [
        {
          "indexed": true,
          "internalType": "address",
          "name": "from",
          "type": "address"
        },
        {
          "indexed": true,
          "internalType": "address",
          "name": "to",
          "type": "address"
        },
        {
          "indexed": true,
          "internalType": "uint256",
          "name": "tokenId",
          "type": "uint256"
        }
      ],
      "name": "Transfer",
      "type": "event"
    },
    {
      "inputs": [
        {
          "internalType": "address",
          "name": "to",
          "type": "address"
        },
        {
          "internalType": "uint256",
          "name": "tokenId",
          "type": "uint256"
        }
      ],
      "name": "approve",
      "outputs": [],
      "stateMutability": "nonpayable",
      "type": "function"
    },
    {
      "inputs": [
        {
          "internalType": "address",
          "name": "owner",
          "type": "address"
        }
      ],
      "name": "balanceOf",
      "outputs": [
        {
          "internalType": "uint256",
          "name": "",
          "type": "uint256"
        }
      ],
      "stateMutability": "view",
      "type": "function"
    },
    {
      "inputs": [
        {
          "internalType": "uint256",
          "name": "tokenId",
          "type": "uint256"
        }
      ],
      "name": "getApproved",
      "outputs": [
        {
          "internalType": "address",
          "name": "",
          "type": "address"
        }
      ],
      "stateMutability": "view",
      "type": "function"
    },
    {
      "inputs": [],
      "name": "getTotalMints",
      "outputs": [
        {
          "internalType": "uint256",
          "name": "",
          "type": "uint256"
        }
      ],
      "stateMutability": "view",
      "type": "function"
    },
    {
      "inputs": [
        {
          "internalType": "address",
          "name": "owner",
          "type": "address"
        },
        {
          "internalType": "address",
          "name": "operator",
          "type": "address"
        }
      ],
      "name": "isApprovedForAll",
      "outputs": [
        {
          "internalType": "bool",
          "name": "",
          "type": "bool"
        }
      ],
      "stateMutability": "view",
      "type": "function"
    },
    {
      "inputs": [],
      "name": "makeAnEpicNFT",
      "outputs": [],
      "stateMutability": "nonpayable",
      "type": "function"
    },
    {
      "inputs": [],
      "name": "name",
      "outputs": [
        {
          "internalType": "string",
          "name": "",
          "type": "string"
        }
      ],
      "stateMutability": "view",
      "type": "function"
    },
    {
      "inputs": [
        {
          "internalType": "uint256",
          "name": "tokenId",
          "type": "uint256"
        }
      ],
      "name": "ownerOf",
      "outputs": [
        {
          "internalType": "address",
          "name": "",
          "type": "address"
        }
      ],
      "stateMutability": "view",
      "type": "function"
    },
    {
      "inputs": [
        {
          "internalType": "uint256",
          "name": "tokenId",
          "type": "uint256"
        },
        {
          "internalType": "string",
          "name": "wordType",
          "type": "string"
        }
      ],
      "name": "pickRandomWord",
      "outputs": [
        {
          "internalType": "string",
          "name": "",
          "type": "string"
        }
      ],
      "stateMutability": "view",
      "type": "function"
    },
    {
      "inputs": [
        {
          "internalType": "address",
          "name": "from",
          "type": "address"
        },
        {
          "internalType": "address",
          "name": "to",
          "type": "address"
        },
        {
          "internalType": "uint256",
          "name": "tokenId",
          "type": "uint256"
        }
      ],
      "name": "safeTransferFrom",
      "outputs": [],
      "stateMutability": "nonpayable",
      "type": "function"
    },
    {
      "inputs": [
        {
          "internalType": "address",
          "name": "from",
          "type": "address"
        },
        {
          "internalType": "address",
          "name": "to",
          "type": "address"
        },
        {
          "internalType": "uint256",
          "name": "tokenId",
          "type": "uint256"
        },
        {
          "internalType": "bytes",
          "name": "_data",
          "type": "bytes"
        }
      ],
      "name": "safeTransferFrom",
      "outputs": [],
      "stateMutability": "nonpayable",
      "type": "function"
    },
    {
      "inputs": [
        {
          "internalType": "address",
          "name": "operator",
          "type": "address"
        },
        {
          "internalType": "bool",
          "name": "approved",
          "type": "bool"
        }
      ],
      "name": "setApprovalForAll",
      "outputs": [],
      "stateMutability": "nonpayable",
      "type": "function"
    },
    {
      "inputs": [
        {
          "internalType": "bytes4",
          "name": "interfaceId",
          "type": "bytes4"
        }
      ],
      "name": "supportsInterface",
      "outputs": [
        {
          "internalType": "bool",
          "name": "",
          "type": "bool"
        }
      ],
      "stateMutability": "view",
      "type": "function"
    },
    {
      "inputs": [],
      "name": "symbol",
      "outputs": [
        {
          "internalType": "string",
          "name": "",
          "type": "string"
        }
      ],
      "stateMutability": "view",
      "type": "function"
    },
    {
      "inputs": [
        {
          "internalType": "uint256",
          "name": "tokenId",
          "type": "uint256"
        }
      ],
      "name": "tokenURI",
      "outputs": [
        {
          "internalType": "string",
          "name": "",
          "type": "string"
        }
      ],
      "stateMutability": "view",
      "type": "function"
    },
    {
      "inputs": [
        {
          "internalType": "address",
          "name": "from",
          "type": "address"
        },
        {
          "internalType": "address",
          "name": "to",
          "type": "address"
        },
        {
          "internalType": "uint256",
          "name": "tokenId",
          "type": "uint256"
        }
      ],
      "name": "transferFrom",
      "outputs": [],
      "stateMutability": "nonpayable",
      "type": "function"
    }
  ],
  "bytecode": "0x608060405260405180610160016040528061012f81526020016200446f61012f9139600890805190602001906200003892919062000683565b506040518060c001604052806040518060400160405280600681526020017f4d4f4445524e000000000000000000000000000000000000000000000000000081525081526020016040518060400160405280600781526020017f5048414e544f4d0000000000000000000000000000000000000000000000000081525081526020016040518060400160405280600981526020017f424f554e444c455353000000000000000000000000000000000000000000000081525081526020016040518060400160405280600781526020017f56495349424c450000000000000000000000000000000000000000000000000081525081526020016040518060400160405280600681526020017f50555a5a4c45000000000000000000000000000000000000000000000000000081525081526020016040518060400160405280600781526020017f4d595249414453000000000000000000000000000000000000000000000000008152508152506009906006620001b692919062000714565b506040518060c001604052806040518060400160405280600681526020017f4e4154555245000000000000000000000000000000000000000000000000000081525081526020016040518060400160405280600581526020017f545245455300000000000000000000000000000000000000000000000000000081525081526020016040518060400160405280600881526020017f4d4f554e5441494e00000000000000000000000000000000000000000000000081525081526020016040518060400160405280600581526020017f524956455200000000000000000000000000000000000000000000000000000081525081526020016040518060400160405280600581526020017f4f4345414e00000000000000000000000000000000000000000000000000000081525081526020016040518060400160405280600681526020017f56414c4c45590000000000000000000000000000000000000000000000000000815250815250600a9060066200033492919062000714565b506040518060c001604052806040518060400160405280600681526020017f4b4f534d4f53000000000000000000000000000000000000000000000000000081525081526020016040518060400160405280600581526020017f445245414d00000000000000000000000000000000000000000000000000000081525081526020016040518060400160405280600481526020017f464952450000000000000000000000000000000000000000000000000000000081525081526020016040518060400160405280600681526020017f4c4541564553000000000000000000000000000000000000000000000000000081525081526020016040518060400160405280600581526020017f475241535300000000000000000000000000000000000000000000000000000081525081526020016040518060400160405280600581526020017f5348495053000000000000000000000000000000000000000000000000000000815250815250600b906006620004b292919062000714565b506031600c55348015620004c557600080fd5b506040518060400160405280600981526020017f5371756172654e465400000000000000000000000000000000000000000000008152506040518060400160405280600681526020017f535155415245000000000000000000000000000000000000000000000000000081525081600090805190602001906200054a92919062000683565b5080600190805190602001906200056392919062000683565b505050620005b16040518060400160405280601e81526020017f54686973206973206d79204e465420636f6e74726163742e20576f6168210000815250620005b760201b620013a01760201c565b62000935565b6200065781604051602401620005ce919062000849565b6040516020818303038152906040527f41304fac000000000000000000000000000000000000000000000000000000007bffffffffffffffffffffffffffffffffffffffffffffffffffffffff19166020820180517bffffffffffffffffffffffffffffffffffffffffffffffffffffffff83818316178352505050506200065a60201b60201c565b50565b60008151905060006a636f6e736f6c652e6c6f679050602083016000808483855afa5050505050565b8280546200069190620008bf565b90600052602060002090601f016020900481019282620006b5576000855562000701565b82601f10620006d057805160ff191683800117855562000701565b8280016001018555821562000701579182015b8281111562000700578251825591602001919060010190620006e3565b5b5090506200071091906200077b565b5090565b82805482825590600052602060002090810192821562000768579160200282015b82811115620007675782518290805190602001906200075692919062000683565b509160200191906001019062000735565b5b5090506200077791906200079a565b5090565b5b80821115620007965760008160009055506001016200077c565b5090565b5b80821115620007be5760008181620007b49190620007c2565b506001016200079b565b5090565b508054620007d090620008bf565b6000825580601f10620007e4575062000805565b601f0160209004906000526020600020908101906200080491906200077b565b5b50565b600062000815826200086d565b62000821818562000878565b93506200083381856020860162000889565b6200083e8162000924565b840191505092915050565b6000602082019050818103600083015262000865818462000808565b905092915050565b600081519050919050565b600082825260208201905092915050565b60005b83811015620008a95780820151818401526020810190506200088c565b83811115620008b9576000848401525b50505050565b60006002820490506001821680620008d857607f821691505b60208210811415620008ef57620008ee620008f5565b5b50919050565b7f4e487b7100000000000000000000000000000000000000000000000000000000600052602260045260246000fd5b6000601f19601f8301169050919050565b613b2a80620009456000396000f3fe608060405234801561001057600080fd5b50600436106101005760003560e01c80636ec0dfe511610097578063b88d4fde11610066578063b88d4fde146102bf578063c87b56dd146102db578063de9d132f1461030b578063e985e9c51461031557610100565b80636ec0dfe51461023757806370a082311461025557806395d89b4114610285578063a22cb465146102a357610100565b806323b872dd116100d357806323b872dd1461019f57806342842e0e146101bb5780634f58eb02146101d75780636352211e1461020757610100565b806301ffc9a71461010557806306fdde0314610135578063081812fc14610153578063095ea7b314610183575b600080fd5b61011f600480360381019061011a919061269b565b610345565b60405161012c9190613350565b60405180910390f35b61013d610427565b60405161014a919061336b565b60405180910390f35b61016d600480360381019061016891906126ed565b6104b9565b60405161017a91906132c0565b60405180910390f35b61019d6004803603810190610198919061265f565b61053e565b005b6101b960048036038101906101b49190612559565b610656565b005b6101d560048036038101906101d09190612559565b6106b6565b005b6101f160048036038101906101ec9190612716565b6106d6565b6040516101fe919061336b565b60405180910390f35b610221600480360381019061021c91906126ed565b610afc565b60405161022e91906132c0565b60405180910390f35b61023f610bae565b60405161024c91906135eb565b60405180910390f35b61026f600480360381019061026a91906124f4565b610bbf565b60405161027c91906135eb565b60405180910390f35b61028d610c77565b60405161029a919061336b565b60405180910390f35b6102bd60048036038101906102b89190612623565b610d09565b005b6102d960048036038101906102d491906125a8565b610e8a565b005b6102f560048036038101906102f091906126ed565b610eec565b604051610302919061336b565b60405180910390f35b61031361103e565b005b61032f600480360381019061032a919061251d565b61130c565b60405161033c9190613350565b60405180910390f35b60007f80ac58cd000000000000000000000000000000000000000000000000000000007bffffffffffffffffffffffffffffffffffffffffffffffffffffffff1916827bffffffffffffffffffffffffffffffffffffffffffffffffffffffff1916148061041057507f5b5e139f000000000000000000000000000000000000000000000000000000007bffffffffffffffffffffffffffffffffffffffffffffffffffffffff1916827bffffffffffffffffffffffffffffffffffffffffffffffffffffffff1916145b80610420575061041f82611439565b5b9050919050565b606060008054610436906138ba565b80601f0160208091040260200160405190810160405280929190818152602001828054610462906138ba565b80156104af5780601f10610484576101008083540402835291602001916104af565b820191906000526020600020905b81548152906001019060200180831161049257829003601f168201915b5050505050905090565b60006104c4826114a3565b610503576040517f08c379a00000000000000000000000000000000000000000000000000000000081526004016104fa9061354b565b60405180910390fd5b6004600083815260200190815260200160002060009054906101000a900473ffffffffffffffffffffffffffffffffffffffff169050919050565b600061054982610afc565b90508073ffffffffffffffffffffffffffffffffffffffff168373ffffffffffffffffffffffffffffffffffffffff1614156105ba576040517f08c379a00000000000000000000000000000000000000000000000000000000081526004016105b1906135ab565b60405180910390fd5b8073ffffffffffffffffffffffffffffffffffffffff166105d961150f565b73ffffffffffffffffffffffffffffffffffffffff16148061060857506106078161060261150f565b61130c565b5b610647576040517f08c379a000000000000000000000000000000000000000000000000000000000815260040161063e9061346b565b60405180910390fd5b6106518383611517565b505050565b61066761066161150f565b826115d0565b6106a6576040517f08c379a000000000000000000000000000000000000000000000000000000000815260040161069d906135cb565b60405180910390fd5b6106b18383836116ae565b505050565b6106d183838360405180602001604052806000815250610e8a565b505050565b6060600061070c836106e78661190a565b6040516020016106f8929190613196565b604051602081830303815290604052611ab7565b905060405160200161071d90613289565b6040516020818303038152906040528051906020012083604051602001610744919061317f565b60405160208183030381529060405280519060200120141561084857600980549050816107719190613935565b9050600981815481106107ad577f4e487b7100000000000000000000000000000000000000000000000000000000600052603260045260246000fd5b9060005260206000200180546107c2906138ba565b80601f01602080910402602001604051908101604052809291908181526020018280546107ee906138ba565b801561083b5780601f106108105761010080835404028352916020019161083b565b820191906000526020600020905b81548152906001019060200180831161081e57829003601f168201915b5050505050915050610af6565b6040516020016108579061322f565b604051602081830303815290604052805190602001208360405160200161087e919061317f565b60405160208183030381529060405280519060200120141561098257600a80549050816108ab9190613935565b9050600a81815481106108e7577f4e487b7100000000000000000000000000000000000000000000000000000000600052603260045260246000fd5b9060005260206000200180546108fc906138ba565b80601f0160208091040260200160405190810160405280929190818152602001828054610928906138ba565b80156109755780601f1061094a57610100808354040283529160200191610975565b820191906000526020600020905b81548152906001019060200180831161095857829003601f168201915b5050505050915050610af6565b6040516020016109919061321a565b60405160208183030381529060405280519060200120836040516020016109b8919061317f565b604051602081830303815290604052805190602001201415610abc57600b80549050816109e59190613935565b9050600b8181548110610a21577f4e487b7100000000000000000000000000000000000000000000000000000000600052603260045260246000fd5b906000526020600020018054610a36906138ba565b80601f0160208091040260200160405190810160405280929190818152602001828054610a62906138ba565b8015610aaf5780601f10610a8457610100808354040283529160200191610aaf565b820191906000526020600020905b815481529060010190602001808311610a9257829003601f168201915b5050505050915050610af6565b6040518060400160405280600c81526020017f44454641554c545f574f524400000000000000000000000000000000000000008152509150505b92915050565b6000806002600084815260200190815260200160002060009054906101000a900473ffffffffffffffffffffffffffffffffffffffff169050600073ffffffffffffffffffffffffffffffffffffffff168173ffffffffffffffffffffffffffffffffffffffff161415610ba5576040517f08c379a0000000000000000000000000000000000000000000000000000000008152600401610b9c906134ab565b60405180910390fd5b80915050919050565b6000610bba6007611aea565b905090565b60008073ffffffffffffffffffffffffffffffffffffffff168273ffffffffffffffffffffffffffffffffffffffff161415610c30576040517f08c379a0000000000000000000000000000000000000000000000000000000008152600401610c279061348b565b60405180910390fd5b600360008373ffffffffffffffffffffffffffffffffffffffff1673ffffffffffffffffffffffffffffffffffffffff168152602001908152602001600020549050919050565b606060018054610c86906138ba565b80601f0160208091040260200160405190810160405280929190818152602001828054610cb2906138ba565b8015610cff5780601f10610cd457610100808354040283529160200191610cff565b820191906000526020600020905b815481529060010190602001808311610ce257829003601f168201915b5050505050905090565b610d1161150f565b73ffffffffffffffffffffffffffffffffffffffff168273ffffffffffffffffffffffffffffffffffffffff161415610d7f576040517f08c379a0000000000000000000000000000000000000000000000000000000008152600401610d769061342b565b60405180910390fd5b8060056000610d8c61150f565b73ffffffffffffffffffffffffffffffffffffffff1673ffffffffffffffffffffffffffffffffffffffff16815260200190815260200160002060008473ffffffffffffffffffffffffffffffffffffffff1673ffffffffffffffffffffffffffffffffffffffff16815260200190815260200160002060006101000a81548160ff0219169083151502179055508173ffffffffffffffffffffffffffffffffffffffff16610e3961150f565b73ffffffffffffffffffffffffffffffffffffffff167f17307eab39ab6107e8899845ad3d59bd9653f200f220920489ca2b5937696c3183604051610e7e9190613350565b60405180910390a35050565b610e9b610e9561150f565b836115d0565b610eda576040517f08c379a0000000000000000000000000000000000000000000000000000000008152600401610ed1906135cb565b60405180910390fd5b610ee684848484611af8565b50505050565b6060610ef7826114a3565b610f36576040517f08c379a0000000000000000000000000000000000000000000000000000000008152600401610f2d9061352b565b60405180910390fd5b6000600660008481526020019081526020016000208054610f56906138ba565b80601f0160208091040260200160405190810160405280929190818152602001828054610f82906138ba565b8015610fcf5780601f10610fa457610100808354040283529160200191610fcf565b820191906000526020600020905b815481529060010190602001808311610fb257829003601f168201915b505050505090506000610fe0611b54565b9050600081511415610ff6578192505050611039565b60008251111561102b578082604051602001611013929190613196565b60405160208183030381529060405292505050611039565b61103484611b6b565b925050505b919050565b600061104a6007611aea565b9050600c54811115611091576040517f08c379a0000000000000000000000000000000000000000000000000000000008152600401611088906134eb565b60405180910390fd5b60006110d2826040518060400160405280600a81526020017f46495253545f574f5244000000000000000000000000000000000000000000008152506106d6565b90506000611115836040518060400160405280600b81526020017f5345434f4e445f574f52440000000000000000000000000000000000000000008152506106d6565b90506000611158846040518060400160405280600a81526020017f54484952445f574f5244000000000000000000000000000000000000000000008152506106d6565b90506000838383604051602001611171939291906131ba565b604051602081830303815290604052905060006008826040516020016111989291906131eb565b604051602081830303815290604052905060006111dd836111b884611c12565b6040516020016111c9929190613244565b604051602081830303815290604052611c12565b90506000816040516020016111f2919061329e565b60405160208183030381529060405290506112416040518060400160405280601581526020017f0a2d2d2d2d2d2d2d2d2d2d2d2d2d2d2d2d2d2d2d2d00000000000000000000008152506113a0565b61124a816113a0565b6112886040518060400160405280601581526020017f2d2d2d2d2d2d2d2d2d2d2d2d2d2d2d2d2d2d2d2d0a00000000000000000000008152506113a0565b6112923389611dd0565b61129c8882611dee565b6112a66007611e62565b6112c9604051806060016040528060258152602001613a90602591398933611e78565b7febb98688741ffa4c7589bf325de30cf7becb63de567842e1ccdb6cb949fdc82c33896040516112fa929190613327565b60405180910390a15050505050505050565b6000600560008473ffffffffffffffffffffffffffffffffffffffff1673ffffffffffffffffffffffffffffffffffffffff16815260200190815260200160002060008373ffffffffffffffffffffffffffffffffffffffff1673ffffffffffffffffffffffffffffffffffffffff16815260200190815260200160002060009054906101000a900460ff16905092915050565b611436816040516024016113b4919061336b565b6040516020818303038152906040527f41304fac000000000000000000000000000000000000000000000000000000007bffffffffffffffffffffffffffffffffffffffffffffffffffffffff19166020820180517bffffffffffffffffffffffffffffffffffffffffffffffffffffffff8381831617835250505050611f17565b50565b60007f01ffc9a7000000000000000000000000000000000000000000000000000000007bffffffffffffffffffffffffffffffffffffffffffffffffffffffff1916827bffffffffffffffffffffffffffffffffffffffffffffffffffffffff1916149050919050565b60008073ffffffffffffffffffffffffffffffffffffffff166002600084815260200190815260200160002060009054906101000a900473ffffffffffffffffffffffffffffffffffffffff1673ffffffffffffffffffffffffffffffffffffffff1614159050919050565b600033905090565b816004600083815260200190815260200160002060006101000a81548173ffffffffffffffffffffffffffffffffffffffff021916908373ffffffffffffffffffffffffffffffffffffffff160217905550808273ffffffffffffffffffffffffffffffffffffffff1661158a83610afc565b73ffffffffffffffffffffffffffffffffffffffff167f8c5be1e5ebec7d5bd14f71427d1e84f3dd0314c0f7b2291e5b200ac8c7c3b92560405160405180910390a45050565b60006115db826114a3565b61161a576040517f08c379a00000000000000000000000000000000000000000000000000000000081526004016116119061344b565b60405180910390fd5b600061162583610afc565b90508073ffffffffffffffffffffffffffffffffffffffff168473ffffffffffffffffffffffffffffffffffffffff16148061169457508373ffffffffffffffffffffffffffffffffffffffff1661167c846104b9565b73ffffffffffffffffffffffffffffffffffffffff16145b806116a557506116a4818561130c565b5b91505092915050565b8273ffffffffffffffffffffffffffffffffffffffff166116ce82610afc565b73ffffffffffffffffffffffffffffffffffffffff1614611724576040517f08c379a000000000000000000000000000000000000000000000000000000000815260040161171b9061356b565b60405180910390fd5b600073ffffffffffffffffffffffffffffffffffffffff168273ffffffffffffffffffffffffffffffffffffffff161415611794576040517f08c379a000000000000000000000000000000000000000000000000000000000815260040161178b9061340b565b60405180910390fd5b61179f838383611f40565b6117aa600082611517565b6001600360008573ffffffffffffffffffffffffffffffffffffffff1673ffffffffffffffffffffffffffffffffffffffff16815260200190815260200160002060008282546117fa91906137d0565b925050819055506001600360008473ffffffffffffffffffffffffffffffffffffffff1673ffffffffffffffffffffffffffffffffffffffff168152602001908152602001600020600082825461185191906136ef565b92505081905550816002600083815260200190815260200160002060006101000a81548173ffffffffffffffffffffffffffffffffffffffff021916908373ffffffffffffffffffffffffffffffffffffffff160217905550808273ffffffffffffffffffffffffffffffffffffffff168473ffffffffffffffffffffffffffffffffffffffff167fddf252ad1be2c89b69c2b068fc378daa952ba7f163c4a11628f55a4df523b3ef60405160405180910390a4505050565b60606000821415611952576040518060400160405280600181526020017f30000000000000000000000000000000000000000000000000000000000000008152509050611ab2565b600082905060005b6000821461198457808061196d906138ec565b915050600a8261197d9190613745565b915061195a565b60008167ffffffffffffffff8111156119c6577f4e487b7100000000000000000000000000000000000000000000000000000000600052604160045260246000fd5b6040519080825280601f01601f1916602001820160405280156119f85781602001600182028036833780820191505090505b5090505b60008514611aab57600182611a1191906137d0565b9150600a85611a209190613935565b6030611a2c91906136ef565b60f81b818381518110611a68577f4e487b7100000000000000000000000000000000000000000000000000000000600052603260045260246000fd5b60200101907effffffffffffffffffffffffffffffffffffffffffffffffffffffffffffff1916908160001a905350600a85611aa49190613745565b94506119fc565b8093505050505b919050565b600081604051602001611aca919061317f565b6040516020818303038152906040528051906020012060001c9050919050565b600081600001549050919050565b611b038484846116ae565b611b0f84848484611f45565b611b4e576040517f08c379a0000000000000000000000000000000000000000000000000000000008152600401611b45906133cb565b60405180910390fd5b50505050565b606060405180602001604052806000815250905090565b6060611b76826114a3565b611bb5576040517f08c379a0000000000000000000000000000000000000000000000000000000008152600401611bac9061358b565b60405180910390fd5b6000611bbf611b54565b90506000815111611bdf5760405180602001604052806000815250611c0a565b80611be98461190a565b604051602001611bfa929190613196565b6040516020818303038152906040525b915050919050565b60606000825190506000811415611c3b5760405180602001604052806000815250915050611dcb565b60006003600283611c4c91906136ef565b611c569190613745565b6004611c629190613776565b90506000602082611c7391906136ef565b67ffffffffffffffff811115611cb2577f4e487b7100000000000000000000000000000000000000000000000000000000600052604160045260246000fd5b6040519080825280601f01601f191660200182016040528015611ce45781602001600182028036833780820191505090505b5090506000604051806060016040528060408152602001613ab5604091399050600181016020830160005b86811015611d885760038101905062ffffff818a015116603f8160121c168401518060081b905060ff603f83600c1c1686015116810190508060081b905060ff603f8360061c1686015116810190508060081b905060ff603f831686015116810190508060e01b90508084526004840193505050611d0f565b506003860660018114611da25760028114611db257611dbd565b613d3d60f01b6002830352611dbd565b603d60f81b60018303525b508484525050819450505050505b919050565b611dea8282604051806020016040528060008152506120dc565b5050565b611df7826114a3565b611e36576040517f08c379a0000000000000000000000000000000000000000000000000000000008152600401611e2d906134cb565b60405180910390fd5b80600660008481526020019081526020016000209080519060200190611e5d929190612318565b505050565b6001816000016000828254019250508190555050565b611f12838383604051602401611e909392919061338d565b6040516020818303038152906040527fe3849f79000000000000000000000000000000000000000000000000000000007bffffffffffffffffffffffffffffffffffffffffffffffffffffffff19166020820180517bffffffffffffffffffffffffffffffffffffffffffffffffffffffff8381831617835250505050611f17565b505050565b60008151905060006a636f6e736f6c652e6c6f679050602083016000808483855afa5050505050565b505050565b6000611f668473ffffffffffffffffffffffffffffffffffffffff16612137565b156120cf578373ffffffffffffffffffffffffffffffffffffffff1663150b7a02611f8f61150f565b8786866040518563ffffffff1660e01b8152600401611fb194939291906132db565b602060405180830381600087803b158015611fcb57600080fd5b505af1925050508015611ffc57506040513d601f19601f82011682018060405250810190611ff991906126c4565b60015b61207f573d806000811461202c576040519150601f19603f3d011682016040523d82523d6000602084013e612031565b606091505b50600081511415612077576040517f08c379a000000000000000000000000000000000000000000000000000000000815260040161206e906133cb565b60405180910390fd5b805181602001fd5b63150b7a0260e01b7bffffffffffffffffffffffffffffffffffffffffffffffffffffffff1916817bffffffffffffffffffffffffffffffffffffffffffffffffffffffff1916149150506120d4565b600190505b949350505050565b6120e6838361214a565b6120f36000848484611f45565b612132576040517f08c379a0000000000000000000000000000000000000000000000000000000008152600401612129906133cb565b60405180910390fd5b505050565b600080823b905060008111915050919050565b600073ffffffffffffffffffffffffffffffffffffffff168273ffffffffffffffffffffffffffffffffffffffff1614156121ba576040517f08c379a00000000000000000000000000000000000000000000000000000000081526004016121b19061350b565b60405180910390fd5b6121c3816114a3565b15612203576040517f08c379a00000000000000000000000000000000000000000000000000000000081526004016121fa906133eb565b60405180910390fd5b61220f60008383611f40565b6001600360008473ffffffffffffffffffffffffffffffffffffffff1673ffffffffffffffffffffffffffffffffffffffff168152602001908152602001600020600082825461225f91906136ef565b92505081905550816002600083815260200190815260200160002060006101000a81548173ffffffffffffffffffffffffffffffffffffffff021916908373ffffffffffffffffffffffffffffffffffffffff160217905550808273ffffffffffffffffffffffffffffffffffffffff16600073ffffffffffffffffffffffffffffffffffffffff167fddf252ad1be2c89b69c2b068fc378daa952ba7f163c4a11628f55a4df523b3ef60405160405180910390a45050565b828054612324906138ba565b90600052602060002090601f016020900481019282612346576000855561238d565b82601f1061235f57805160ff191683800117855561238d565b8280016001018555821561238d579182015b8281111561238c578251825591602001919060010190612371565b5b50905061239a919061239e565b5090565b5b808211156123b757600081600090555060010161239f565b5090565b60006123ce6123c984613637565b613606565b9050828152602081018484840111156123e657600080fd5b6123f1848285613878565b509392505050565b600061240c61240784613667565b613606565b90508281526020810184848401111561242457600080fd5b61242f848285613878565b509392505050565b60008135905061244681613a33565b92915050565b60008135905061245b81613a4a565b92915050565b60008135905061247081613a61565b92915050565b60008151905061248581613a61565b92915050565b600082601f83011261249c57600080fd5b81356124ac8482602086016123bb565b91505092915050565b600082601f8301126124c657600080fd5b81356124d68482602086016123f9565b91505092915050565b6000813590506124ee81613a78565b92915050565b60006020828403121561250657600080fd5b600061251484828501612437565b91505092915050565b6000806040838503121561253057600080fd5b600061253e85828601612437565b925050602061254f85828601612437565b9150509250929050565b60008060006060848603121561256e57600080fd5b600061257c86828701612437565b935050602061258d86828701612437565b925050604061259e868287016124df565b9150509250925092565b600080600080608085870312156125be57600080fd5b60006125cc87828801612437565b94505060206125dd87828801612437565b93505060406125ee878288016124df565b925050606085013567ffffffffffffffff81111561260b57600080fd5b6126178782880161248b565b91505092959194509250565b6000806040838503121561263657600080fd5b600061264485828601612437565b92505060206126558582860161244c565b9150509250929050565b6000806040838503121561267257600080fd5b600061268085828601612437565b9250506020612691858286016124df565b9150509250929050565b6000602082840312156126ad57600080fd5b60006126bb84828501612461565b91505092915050565b6000602082840312156126d657600080fd5b60006126e484828501612476565b91505092915050565b6000602082840312156126ff57600080fd5b600061270d848285016124df565b91505092915050565b6000806040838503121561272957600080fd5b6000612737858286016124df565b925050602083013567ffffffffffffffff81111561275457600080fd5b612760858286016124b5565b9150509250929050565b61277381613804565b82525050565b61278281613816565b82525050565b6000612793826136ac565b61279d81856136c2565b93506127ad818560208601613887565b6127b681613a22565b840191505092915050565b60006127cc826136b7565b6127d681856136d3565b93506127e6818560208601613887565b6127ef81613a22565b840191505092915050565b6000612805826136b7565b61280f81856136e4565b935061281f818560208601613887565b80840191505092915050565b60008154612838816138ba565b61284281866136e4565b9450600182166000811461285d576001811461286e576128a1565b60ff198316865281860193506128a1565b61287785613697565b60005b838110156128995781548189015260018201915060208101905061287a565b838801955050505b50505092915050565b60006128b76032836136d3565b91507f4552433732313a207472616e7366657220746f206e6f6e20455243373231526560008301527f63656976657220696d706c656d656e74657200000000000000000000000000006020830152604082019050919050565b600061291d601c836136d3565b91507f4552433732313a20746f6b656e20616c7265616479206d696e746564000000006000830152602082019050919050565b600061295d600a836136e4565b91507f54484952445f574f5244000000000000000000000000000000000000000000006000830152600a82019050919050565b600061299d6024836136d3565b91507f4552433732313a207472616e7366657220746f20746865207a65726f2061646460008301527f72657373000000000000000000000000000000000000000000000000000000006020830152604082019050919050565b6000612a036019836136d3565b91507f4552433732313a20617070726f766520746f2063616c6c6572000000000000006000830152602082019050919050565b6000612a436063836136e4565b91507f222c20226465736372697074696f6e223a20224120686967686c79206163636c60008301527f61696d656420636f6c6c656374696f6e206f6620737175617265732e222c202260208301527f696d616765223a2022646174613a696d6167652f7376672b786d6c3b6261736560408301527f36342c00000000000000000000000000000000000000000000000000000000006060830152606382019050919050565b6000612af5600b836136e4565b91507f5345434f4e445f574f52440000000000000000000000000000000000000000006000830152600b82019050919050565b6000612b35602c836136d3565b91507f4552433732313a206f70657261746f7220717565727920666f72206e6f6e657860008301527f697374656e7420746f6b656e00000000000000000000000000000000000000006020830152604082019050919050565b6000612b9b600d836136e4565b91507f3c2f746578743e3c2f7376673e000000000000000000000000000000000000006000830152600d82019050919050565b6000612bdb6038836136d3565b91507f4552433732313a20617070726f76652063616c6c6572206973206e6f74206f7760008301527f6e6572206e6f7220617070726f76656420666f7220616c6c00000000000000006020830152604082019050919050565b6000612c41602a836136d3565b91507f4552433732313a2062616c616e636520717565727920666f7220746865207a6560008301527f726f2061646472657373000000000000000000000000000000000000000000006020830152604082019050919050565b6000612ca76029836136d3565b91507f4552433732313a206f776e657220717565727920666f72206e6f6e657869737460008301527f656e7420746f6b656e00000000000000000000000000000000000000000000006020830152604082019050919050565b6000612d0d602e836136d3565b91507f45524337323155524953746f726167653a2055524920736574206f66206e6f6e60008301527f6578697374656e7420746f6b656e0000000000000000000000000000000000006020830152604082019050919050565b6000612d73602c836136d3565b91507f546865206d6178696d756d206e756d626572206f66204e46547320686173206260008301527f65656e20726561636865642e00000000000000000000000000000000000000006020830152604082019050919050565b6000612dd96002836136e4565b91507f227d0000000000000000000000000000000000000000000000000000000000006000830152600282019050919050565b6000612e196020836136d3565b91507f4552433732313a206d696e7420746f20746865207a65726f20616464726573736000830152602082019050919050565b6000612e596031836136d3565b91507f45524337323155524953746f726167653a2055524920717565727920666f722060008301527f6e6f6e6578697374656e7420746f6b656e0000000000000000000000000000006020830152604082019050919050565b6000612ebf602c836136d3565b91507f4552433732313a20617070726f76656420717565727920666f72206e6f6e657860008301527f697374656e7420746f6b656e00000000000000000000000000000000000000006020830152604082019050919050565b6000612f256029836136d3565b91507f4552433732313a207472616e73666572206f6620746f6b656e2074686174206960008301527f73206e6f74206f776e00000000000000000000000000000000000000000000006020830152604082019050919050565b6000612f8b602f836136d3565b91507f4552433732314d657461646174613a2055524920717565727920666f72206e6f60008301527f6e6578697374656e7420746f6b656e00000000000000000000000000000000006020830152604082019050919050565b6000612ff1600a836136e4565b91507f7b226e616d65223a2022000000000000000000000000000000000000000000006000830152600a82019050919050565b60006130316021836136d3565b91507f4552433732313a20617070726f76616c20746f2063757272656e74206f776e6560008301527f72000000000000000000000000000000000000000000000000000000000000006020830152604082019050919050565b6000613097600a836136e4565b91507f46495253545f574f5244000000000000000000000000000000000000000000006000830152600a82019050919050565b60006130d7601d836136e4565b91507f646174613a6170706c69636174696f6e2f6a736f6e3b6261736536342c0000006000830152601d82019050919050565b60006131176031836136d3565b91507f4552433732313a207472616e736665722063616c6c6572206973206e6f74206f60008301527f776e6572206e6f7220617070726f7665640000000000000000000000000000006020830152604082019050919050565b6131798161386e565b82525050565b600061318b82846127fa565b915081905092915050565b60006131a282856127fa565b91506131ae82846127fa565b91508190509392505050565b60006131c682866127fa565b91506131d282856127fa565b91506131de82846127fa565b9150819050949350505050565b60006131f7828561282b565b915061320382846127fa565b915061320e82612b8e565b91508190509392505050565b600061322582612950565b9150819050919050565b600061323a82612ae8565b9150819050919050565b600061324f82612fe4565b915061325b82856127fa565b915061326682612a36565b915061327282846127fa565b915061327d82612dcc565b91508190509392505050565b60006132948261308a565b9150819050919050565b60006132a9826130ca565b91506132b582846127fa565b915081905092915050565b60006020820190506132d5600083018461276a565b92915050565b60006080820190506132f0600083018761276a565b6132fd602083018661276a565b61330a6040830185613170565b818103606083015261331c8184612788565b905095945050505050565b600060408201905061333c600083018561276a565b6133496020830184613170565b9392505050565b60006020820190506133656000830184612779565b92915050565b6000602082019050818103600083015261338581846127c1565b905092915050565b600060608201905081810360008301526133a781866127c1565b90506133b66020830185613170565b6133c3604083018461276a565b949350505050565b600060208201905081810360008301526133e4816128aa565b9050919050565b6000602082019050818103600083015261340481612910565b9050919050565b6000602082019050818103600083015261342481612990565b9050919050565b60006020820190508181036000830152613444816129f6565b9050919050565b6000602082019050818103600083015261346481612b28565b9050919050565b6000602082019050818103600083015261348481612bce565b9050919050565b600060208201905081810360008301526134a481612c34565b9050919050565b600060208201905081810360008301526134c481612c9a565b9050919050565b600060208201905081810360008301526134e481612d00565b9050919050565b6000602082019050818103600083015261350481612d66565b9050919050565b6000602082019050818103600083015261352481612e0c565b9050919050565b6000602082019050818103600083015261354481612e4c565b9050919050565b6000602082019050818103600083015261356481612eb2565b9050919050565b6000602082019050818103600083015261358481612f18565b9050919050565b600060208201905081810360008301526135a481612f7e565b9050919050565b600060208201905081810360008301526135c481613024565b9050919050565b600060208201905081810360008301526135e48161310a565b9050919050565b60006020820190506136006000830184613170565b92915050565b6000604051905081810181811067ffffffffffffffff8211171561362d5761362c6139f3565b5b8060405250919050565b600067ffffffffffffffff821115613652576136516139f3565b5b601f19601f8301169050602081019050919050565b600067ffffffffffffffff821115613682576136816139f3565b5b601f19601f8301169050602081019050919050565b60008190508160005260206000209050919050565b600081519050919050565b600081519050919050565b600082825260208201905092915050565b600082825260208201905092915050565b600081905092915050565b60006136fa8261386e565b91506137058361386e565b9250827fffffffffffffffffffffffffffffffffffffffffffffffffffffffffffffffff0382111561373a57613739613966565b5b828201905092915050565b60006137508261386e565b915061375b8361386e565b92508261376b5761376a613995565b5b828204905092915050565b60006137818261386e565b915061378c8361386e565b9250817fffffffffffffffffffffffffffffffffffffffffffffffffffffffffffffffff04831182151516156137c5576137c4613966565b5b828202905092915050565b60006137db8261386e565b91506137e68361386e565b9250828210156137f9576137f8613966565b5b828203905092915050565b600061380f8261384e565b9050919050565b60008115159050919050565b60007fffffffff0000000000000000000000000000000000000000000000000000000082169050919050565b600073ffffffffffffffffffffffffffffffffffffffff82169050919050565b6000819050919050565b82818337600083830152505050565b60005b838110156138a557808201518184015260208101905061388a565b838111156138b4576000848401525b50505050565b600060028204905060018216806138d257607f821691505b602082108114156138e6576138e56139c4565b5b50919050565b60006138f78261386e565b91507fffffffffffffffffffffffffffffffffffffffffffffffffffffffffffffffff82141561392a57613929613966565b5b600182019050919050565b60006139408261386e565b915061394b8361386e565b92508261395b5761395a613995565b5b828206905092915050565b7f4e487b7100000000000000000000000000000000000000000000000000000000600052601160045260246000fd5b7f4e487b7100000000000000000000000000000000000000000000000000000000600052601260045260246000fd5b7f4e487b7100000000000000000000000000000000000000000000000000000000600052602260045260246000fd5b7f4e487b7100000000000000000000000000000000000000000000000000000000600052604160045260246000fd5b6000601f19601f8301169050919050565b613a3c81613804565b8114613a4757600080fd5b50565b613a5381613816565b8114613a5e57600080fd5b50565b613a6a81613822565b8114613a7557600080fd5b50565b613a818161386e565b8114613a8c57600080fd5b5056fe416e204e465420772f20494420257320686173206265656e206d696e74656420746f2025734142434445464748494a4b4c4d4e4f505152535455565758595a6162636465666768696a6b6c6d6e6f707172737475767778797a303132333435363738392b2fa2646970667358221220821bcef064a2ba759e7eeffc5e544378c0dde815ed09ecd63291aa1428eeaadb64736f6c634300080000333c73766720786d6c6e733d27687474703a2f2f7777772e77332e6f72672f323030302f73766727207072657365727665417370656374526174696f3d27784d696e594d696e206d656574272076696577426f783d273020302033353020333530273e3c7374796c653e2e62617365207b2066696c6c3a2077686974653b20666f6e742d66616d696c793a2073657269663b20666f6e742d73697a653a20323470783b207d3c2f7374796c653e3c726563742077696474683d273130302527206865696768743d2731303025272066696c6c3d27626c61636b27202f3e3c7465787420783d273530252720793d273530252720636c6173733d27626173652720646f6d696e616e742d626173656c696e653d276d6964646c652720746578742d616e63686f723d276d6964646c65273e",
  "linkReferences": {},
  "deployedLinkReferences": {}
}